:0200000407FCF7
:1000000078ECFC072505FC072D05FC074505FC07DA
:1000100000000000000000000000000000000000E0
:100020000000000000000000000000005D05FC076B
:1000300000000000000000005F05FC076B2CFC07BF
:100040004922FC07517EFC071D27F0076D2CFC0799
:100050008D27FC076305FC073D22FC076305FC07B1
:100060006305FC076305FC07BD26FC07C726FC07E4
:10007000D126FC07DB26FC07E526FC076305FC0709
:10008000FD2CFC076305FC076305FC076305FC0703
:100090006305FC076305FC076305FC076305FC07B4
:0200000407FCF7
:100510000348854601F09AFD00480047196EFC0724
:1005200078ECFC070F4880470F48004704207146CD
:10053000084203D0EFF309800C490847EFF3088025
:100540000A49084704207146084203D0EFF30980A6
:1005500007490847EFF3088005490847FEE7FEE72B
:10056000FEE7FEE779A0FC071105FC079D27FC07C5
:100570007527FC0770B50E4604460022032151F78B
:10058000EAF9054652F7B6FB6880284651F7F4F9B8
:1005900052F7B0FB7188884200D3084601462046D6
:1005A00051F7D1FA002070BD0246FF4B92009A58D5
:1005B0000120126900290ED0517F5E239B5C002B25
:1005C0000BD0052906D1517E090702D5917C090778
:1005D00000D400207047917DEFE70229F9D004296B
:1005E000F7D00529F6D10020EDE7024630B593009B
:1005F000ED4A0120D2581269137DD47E157F234025
:10060000547D2C40012901D0022909D1957C527ECC
:1006100015402A0704D41A462243D20700D10020ED
:10062000032901D0042904D1590702D4610700D459
:10063000002030BDF8B514460D4610465BF76DFC42
:10064000240A002830D0D949A2008B5801271E8BDC
:10065000BF023E431E83132826D0142824D0152819
:1006600011D088582D210A5C0123D10600290CDA0B
:100670000146A0318E7D002E07D08B753D2120468E
:1006800045F7B8FE10E00220F8BD110703D50021A0
:10069000A0308175F7E7A0308375204643F7A4FBAF
:1006A0002946204643F7E3FB0020F8BDFFB581B0A3
:1006B0001546170A10465BF730FC002838D013287F
:1006C00036D0142834D0290A8C00B84E152815D0FD
:1006D000FF20294603305BF707FD30592D21095CC7
:1006E000C90603D5A030C07D00280ED03D026D1C88
:1006F000A8B25BF712FC19280CD00FE03059012189
:10070000A030C175022005B0F0BD3D21384645F747
:1007100071FE0DE0A8B201215BF7CDFB305901223B
:10072000018B5202914301833846029943F79FFBA4
:100730000020E8E7F0B59D498700C95900268031BF
:100740004A8C8B8C1B2A00D21B228C8B944200D2A9
:1007500022468A849A4200D001260B8CCD8C1B2B1A
:1007600000D21B23CC8B9C4200D22346CB84AB42CD
:1007700000D001260B8ECD8D9C46FF2349339D4230
:1007800001D21C4600E02C460D8DA54200D3254623
:100790000D86654500D001264C8EA4468C8D9C426A
:1007A00000D21C464B8DA34200D21C464C866445A9
:1007B00000D00126EB080B3B9BB29A4200D21346B5
:1007C0008B86522379495843794BCA591C68803229
:1007D0000419D28C8034E285C9591A688031801896
:1007E000498E803001863046F0BD10B50446714810
:1007F000008D8007800F012800D000206071002844
:1008000007D057F7F3FE01460622A01D5DF74EFC08
:1008100010BD06226849A01DF8E770B50546002402
:1008200042F7A9F82855641C082CF9DB70BDF8B50F
:10083000022707700126044646700D4688795F49F5
:10084000C96988472A210855287900210007000F27
:10085000A07003005DF77EFC07050709100D100B63
:100860001000A1700AE0A67026E0032002E0A77045
:1008700004E00420A07001E001281DD0A888000A2F
:10088000801FC0B2A0721F2800D9A172284642F76B
:1008900027F9811D2046A27A0B305DF707FC284618
:1008A00042F71EF901460622201D5DF7FFFB28795D
:1008B0004006C00FE070F8BDA172F0E7F7B54468DC
:1008C0008CB02546243503950546074624354CF75C
:1008D0001BFA06464420405B5221484334490968CC
:1008E0004018C0304089694608840121384647F7DE
:1008F0004AF94CF77EF809900E9800698088000A42
:10090000C1002F480818298940182D495B315DF72F
:1009100053FB01466868039D4718403528890690B7
:100920000090A0680099381A400140095DF744FB27
:100930000A910098C019401A400140096946A06018
:10094000098C4900C919891C49014909884204D206
:100950000699401840014009A06001460998081A0C
:10096000400118494009884215D900202B89A26806
:10097000401CD21852015209A260EA89521CEA8135
:10098000A368099A9A1A520152098A42EED801B212
:100990000D9847F799F9A1680998081A4201607DF6
:1009A0005209824221D80FE02C7EFD071879FD07FD
:1009B0004C76FD074C7EFD07CF79FD07B47FFD0720
:1009C00016020000FFFFFF032A898918490149091F
:1009D000A1602A890A99511A814206D901210D98EC
:1009E00047F772F9E889401CE8812989A0685DF71A
:1009F000E3FAF1802889B080208A3081A88870814C
:100A00000020B081C807C00FB073A88852214843A6
:100A10008E30308230464CF782F903984663204688
:100A20000FB0F0BDFFB5002093B006460124FE498B
:100A300049680A7821460C2A0CD06A4611730022B4
:100A40001192002E09D015990291169D1F2D54D98F
:100A5000402052E000242246119413990291149DE3
:100A6000F4E7029989184978012905D0172903D09C
:100A7000182901D0192912D1631E04E003AFFF5CCD
:100A80008F4204D05B1E5BB2002BF7DA03E0002B31
:100A900001DB4A2003E003AB1955641CE4B20B00F0
:100AA0005DF758FB1D2610101010101010101026A6
:100AB000262626262626262626262626101010102E
:100AC00010102600119B03E00BAFFF5C8F4204D097
:100AD0005B1E5BB2002BF7DA03E0002B01DB4A2040
:100AE00006E0119F0BABD9551199491CC9B2119160
:100AF0000299895C521C89188AB2AA4201D2002844
:100B0000AFD0AA4200D04A20761CF6B2022E01D203
:100B1000002894D017B0F0BD10B50022134607E0AE
:100B200084186478012C07D0845C521CA21892B2FD
:100B30008A42F5D3184610BD80188378FAE7F0B5DD
:100B40000646A9B01546002084006318DA789F781D
:100B500012025B783A4352BA1B041A430B5D072416
:100B60001B061A43231A9F0020AB401CDA510828A9
:100B7000EAD300218A0090190746C37880781B02C7
:100B8000034378785BBA00040343B05C10AA000604
:100B90000343601A800013503846223043780078AF
:100BA0001B0203433846203047785BBA3F04007885
:100BB0003B43000603430F27781A8000491C13505B
:100BC0000829D7D35CF706F9014630465CF77FFD6C
:100BD00000282DD05CF7FEF8034620AA10A968462D
:100BE0005DF780F900226846A11A8B009600C75C69
:100BF0007119CF70C75A3F0A8F70C7583F0C4F709A
:100C0000C35820311B0EAB550F239B1A9B00C65CAB
:100C1000CE70C65A521C360A8E70C658360C4E70AC
:100C2000C3581B0E0B70082ADED3002029B0F0BD7C
:100C30000120FBE7F7B500251746064641232A4663
:100C400029460A205AF7B4FF0446002E10D0012E80
:100C500002D0022E0CD105E02022611C002041F7B9
:100C6000A3FE04E0621C3946019841F74DFE207056
:100C700020465AF7B6FF2846FEBDF8B56B480090EF
:100C800007680C46002F7BD005461C35287E0028BF
:100C900076D0012802D0022872D102E02078002804
:100CA00019D038896249002688423AD107204BF78B
:100CB00023FC002835D042233E2200215D485AF70C
:100CC00077FF082101702178002913D0032141709A
:100CD0002178817043E055480226611C14302E763D
:100CE000202204465DF7E2F922465349304641F797
:100CF00015FE45E0002146701F22531A1B194718A4
:100D00005B78491CBB702029F7DB00213F22531A76
:100D100047181B1920375B78491CBB702029F6DB6C
:100D20001DE043493889491C88421AD108204BF7F5
:100D3000E3FB002815D022233E2200213D485AF72C
:100D400037FF09210170217800291BD01221417041
:100D50000021FF224318491C9A702029FADB4DF725
:100D6000D7FE2E7640205BF7A6FB009841F7DAFE0F
:100D70005AF761FF00980068002801D041F7C9FDCB
:100D80000020F8BD002146701F22531A1B19471876
:100D90005B78491CBB702029F7DBE0E770B5087869
:100DA00000250C46012809D01D2810D02B2812D070
:100DB0004022194655F7BCFE284670BD5BF765FA20
:100DC0001948012504601D4857F745FAF4E71C4807
:100DD00041F708FDF0E71B4801680029ECD101212B
:100DE0000160194841F704FEE6E770B5104D174C55
:100DF000223DAB422ED10F4809232A460021C01EB6
:100E00005AF7D6FE044608221149401C5DF74EF9F8
:100E100020790821084320710025257020464DF7D0
:100E200077FE284670BD00004C7EFD07287AFD073E
:100E3000252000000408000089E7F107030C0000EA
:100E4000C3C3C3C35077FD07CC7DFD070DC3F007B7
:100E50005CE5F107A047E5E7F1B584B00498FF49E8
:100E600080000C5804980502A81D0290002C15D093
:100E70006068818804290CD34188861D0C38009154
:100E800001903146049857F7BCFFF549884206D1D6
:100E900060680C385AF7CFFE0020606033E4F178C8
:100EA000B2780F02019928431743C880384640386A
:100EB0003F2819D803223946049854F729F8060028
:100EC000E6D0B07B0128E3D13420B07329460A3143
:100ED0000423E448029A5AF76BFEB189418010213D
:100EE00001705AF77EFED3E7616834200870022152
:100EF00000985AF74FFD05463146009A5DF7D6F83F
:100F000068782978000208436168C880E878A97881
:100F1000000208436168062F08810BD0042F09D016
:100F20006068052F10D00C385AF785FE28465AF70E
:100F3000ACFDB1E760688188052913D329798172F6
:100F40006168287988720DE0818805290AD329799A
:100F5000817261682879887260688188062901D366
:100F60006979C17260685AF73CFEDFE7FFB587B068
:100F70000E4609985AF7D1FF0999090A03910028EA
:100F800076D08800B54905900D58B749B079096BFE
:100F90000A225043B478081841F7A2FD019068680E
:100FA000002808D0012C2DD00398FFF755FF686862
:100FB000002802D026E0022C5AD1B088012702284E
:100FC00005D30198417800780C02044302E051F700
:100FD00091FE044651F78EFEA04201D20224002762
:100FE00020464C3083B29E49A048099A5AF7E0FD4A
:100FF000241D68604480002F01D0002000E03420D0
:101000006968087068680028BAD0811D0091B288AC
:101010000199841C071D01928088238882189A42B6
:1010200009D8009A8018019A5DF740F8398801982C
:101030000818388009E01A1A009BC0185DF736F8C6
:1010400020883880696834200870388804280FD3D5
:10105000009841780278080210432188001D8842D8
:1010600007D280B220803988814207D9388002E0D7
:1010700068E0884202D9696834200870388821887D
:1010800088425FD1686800990C380190039857F73F
:10109000B8FE69680978002951D1714988424ED05B
:1010A00003990F0201993843C880208802210190DA
:1010B0005AF770FC0490228800995CF7F7FF0498B7
:1010C00000283FD0696800208880019802226B4682
:1010D000039907C36868049B821C011D801D41F7AA
:1010E000D9FB6968087004985AF7CFFC6868418892
:1010F000002902D00178002954D0018940393F29C4
:1011000044D8017830291ED00146544A05980C393C
:101110001058083041F722FD69680398891D41F78E
:10112000CAFB4628686801891FD00322039853F739
:10113000EFFE00282CD0808A00282CD028E00398CD
:10114000FFF78AFE42E04A49098D0906C90F07D018
:1011500048490C380968099A898D89B25AF75EFDA9
:1011600068680C385AF767FD12E00322039853F7BA
:10117000CFFE04000CD039460A3104233948099ABD
:101180005AF716FDA1894180102101705AF729FDF7
:10119000002068601AE0686800220189039841F71E
:1011A00085FBF5E70189084640383F280ED8032221
:1011B000039853F7ADFE002808D0808A002805D197
:1011C000686800220189039841F770FBB07941F704
:1011D0007AFC00200BB0F0BDFFB58BB00646169828
:1011E0000027022821D00D980188149881427DD3D0
:1011F0007188084640383F2802D8159853F7C9FE31
:101200000C98361D0088149A80190E995CF74EFFD1
:101210000C980188149808180C9908800D9801887A
:101220001498081A0D99088069E100200E9D079016
:1012300069782C78090221433180E978AC78090279
:10124000214371808C46403904242D1D02460346FB
:101250008E46402900D3287861460DE0AC7DFD071D
:10126000FFFF0000260E0000E078FD07010A0000E5
:101270004C7EFD075876FD0704291FD0052914D0A0
:10128000062918D070463F283ED8159853F781FE9E
:101290000006000E04D0FC48008D0006C00F31D0BF
:1012A00002230120F94A002712E0697800290FD0B3
:1012B000F74A17230CE0F74A0F2309E0522802D01F
:1012C000D22802D002E0142000E01520F24A1F23A9
:1012D000002A7DD098427BD28000105804900028CC
:1012E000F7D0002008900590708800E006E14038B3
:1012F000402803D32878052430716D1C701D0090A0
:101300000498AFE03027EDE03327EBE0522864D0BB
:101310000CDC4B283FD004DC41286AD042285AD14B
:1013200011E04C2820D0502855D140E0632830D01F
:1013300004DC572818D061284DD19BE06C2864D07C
:10134000772848D109E00098297801700098641C3A
:10135000401CA4B26D1C009081E00498401C0490D5
:101360000178089881427AD10098A41C401C410859
:101370004900881C009068782A7800021043088091
:101380000599AD1CA4B2002969D0089000200590F1
:1013900065E00120FBE71022294600985CF786FEF5
:1013A000009810341030A4B21035009057E0204659
:1013B00040301499039088420DD840222946009865
:1013C0005CF774FE009840300090039884B200E00F
:1013D00079E0403543E0342741E00822294600986F
:1013E0005CF764FE009808340830A4B20835009019
:1013F00035E00622294600985CF758FE0098A41DA7
:10140000801DA4B2AD1D009029E01498001B80B28D
:1014100003903088001B001D81B2012007900498C2
:10142000401C04900098401C400840000090049824
:10143000007857281CD04228CDD100980170090AA5
:10144000417000982946801C0090039A5CF72EFE9C
:1014500003980399201884B20098401800900498CB
:10146000401C04900078002820D0002F19D01DE0E7
:101470004908E2E71498001B80B203900098039A91
:10148000401C41084900012000910790294600981E
:101490005CF70CFE03980099201884B20398081892
:1014A000DCE70D990988A14200D32FE70D98008849
:1014B000A04208D304990978002904D1079900298A
:1014C00003D1A04201D034270CE00D99001B088005
:1014D0000C9801880098801B001F08180C99002F99
:1014E00008800CD07088042809D0062807D040381E
:1014F000402804D30E984079707100E034273846B4
:101500000FB0F0BDFFB581B01F4616460C46104621
:101510005AF703FD00253F2802D02189062908D06B
:101520003B4632462146019854F7BFF80546284607
:10153000B4E4000701D50225F9E720780028F6D1A8
:10154000300AA11D41F7C1F8F1E7F3B581B0019868
:10155000524C850060590F464068CE8801462431C0
:10156000009146F7E3FE00994D4A40310091C98948
:10157000701A80B2904214D2B14212D060593146F2
:10158000406845F78CFF60590522791C1F305CF7D5
:101590008DFD019805210002401C80B25AF78BFC9A
:1015A000FEBD60590522791C1F305CF77FFD009855
:1015B000808841F767FFFEBDF8B53A4C06468500C6
:1015C0000F4660594821095C24290ED10069102278
:1015D000791D2E305CF76AFD615925204031087273
:1015E00000221146304652F739FE60594821095C05
:1015F0000C291FD100691022791D2E305CF756FD91
:1016000060595F210069095C09072DD401462E311C
:1016100010221E305CF76EFD00280CD060590921A5
:1016200040300172304653F737FB01460022304606
:1016300052F79FF9F8BD0421684601706A460521FA
:10164000304652F741FB6846017860200143684606
:101650000170304653F720FB0146684602780123AB
:10166000304652F79BFAF8BD304653F715FB012878
:101670001AD06059072140300172002211463046CD
:1016800052F7ECFDF8BD00004C7EFD0714F3F107A6
:101690001CF3F10778F3F107B4F3F1071879FD07AC
:1016A000FF7F00002C7EFD07615900200969C031D1
:1016B000887160590421026930461E3252F704FBDA
:1016C000605901694031897F002907D01A214030D3
:1016D00001720021304652F74BFED3E71B21403008
:1016E0000172304652F799FECCE7F8B5E64C054654
:1016F0008600A0594822125C192AC3D140224930E1
:10170000491D5CF7D3FCA0594022E04949305CF701
:10171000F1FC002805D0DD492846203959F749FF5A
:10172000B0E70B21684601706A460521284652F74A
:10173000CBFA68460178602001436846017028466C
:1017400053F7AAFA0146684602780123284652F761
:1017500025FA97E7FFB581B003980C46060A0025E5
:101760005AF7DBFB002818D0132816D0142814D001
:10177000C748B700C0592030407BC00628D5039821
:101780005AF7CBFB15280CD0A07941F79CF93046CD
:1017900045F7B3FD032806D015E0A07941F793F98A
:1017A0001FE002251DE0BA48C0592030407B4007A9
:1017B00004D53D21304641F7BEFD04E03D22002125
:1017C000304641F7C6FD3D21304644F713FE08E0A0
:1017D00020460C38AF498180C68020464DF798F9E5
:1017E00001252846A4E6F1B58EB00E9841F778F9A8
:1017F00004460E98694600794006C00F0A9006908C
:101800000A208883628BA449101A88427ED2E08A1B
:1018100006287BD31921C901884277D8238BFF2161
:10182000F5318B4272D85B1C990059184143491C11
:101830000A2349105A43914268DC217F00290CD1C8
:10184000617F002909D1A17F002906D1E17F00290C
:1018500003D12021095DC90658D027462037797861
:10186000C906C90E491F0C2950D2A18A81424DD800
:10187000E17C00294AD0421E082A01D9082000E054
:10188000401E814242D805A844F79CFD00283DD166
:10189000824D0622E861214608A85CF707FCA8787B
:1018A0002E46803E00287ED06079800901280AD02B
:1018B00020460A994AF7C4FE00285ED03821095C08
:1018C000002954D059E020464AF727FFE861002854
:1018D00004D10BA920464AF736FFE861F16A887AFD
:1018E000012801D0042810D1E86900280ED0062272
:1018F000253010315CF7FEFB002807D1E869F16A5A
:101900002030C07AC97B884200D100E0A2E0E969BA
:10191000002932D0062208A825315CF7C7FBE86908
:101920002B21095C07AA253006914AF76BFD002898
:101930000FD0E8692030C07A002811D16846584994
:10194000808B49F711FD07AA012155484AF75AFD36
:1019500006E007AA01210BA84AF754FD00280CD085
:10196000E9696846808B323149F714FD05E0421879
:10197000527D002A08D010296CDBF06A407A0228D8
:1019800006D0032804D00EE0491C1029EFDBF4E751
:101990006846808B0A2806D307AA20460A994AF788
:1019A00031FD002856D0002205A920464AF7D4FD73
:1019B00000284FD1F06A407A02280BD0032809D0C2
:1019C00000236846828A08A806994AF7E6FD00289F
:1019D00002D02EE00123F4E7E18A68460180218BE2
:1019E0004180618B81807878062241096846817345
:1019F0007878C106C90E684641732146801D5CF7A0
:101A000055FB0E9800794006C10F68460173838A22
:101A10002146B26D45F783FC0146B065684641F743
:101A200029FB0020B065214668461C31808A44F7B6
:101A30001CFD47F7BAFC194C20342079002805D04A
:101A4000002109205AF750FB002020710021084690
:101A50005AF731FA54E510B57022124912485CF772
:101A600025FB10493822383910485CF71FFB0E4817
:101A70000F49A03001600B49703941600A490D4897
:101A80002039086010BD70472C7EFD07EC7DFD07F6
:101A90001879FD0706080000770C0000E479FD07BF
:101AA00004E5F10728A1FC0720000840C000FC075E
:101AB0008CBFF107FF3F1000F8B53E4C6088C607A9
:101AC0006088F60FC005C50F608840084000608040
:101AD0006088FF270137B843608040F771FF40F707
:101AE00075FF00220821022040F764FF002800D083
:101AF00001206188A18861884908490031436180DB
:101B000061882A02B94311436180F8BD70B501258F
:101B100029492A020A60BFF34F8FBFF36F8F27490D
:101B20000A6027490B681C0A240240231C430C60EE
:101B3000214980390A601F494C880626B443241D78
:101B40004C804C882C434C804C8838252C434C804E
:101B50004C889C434C8001280FD14888330218439D
:101B6000488048881043488048882A0210434880AB
:101B70004888012292039043488070BD10B5114CF3
:101B8000E18A114ACBB21189248BC904890E6404FD
:101B9000640E001B093141430120C002401A80B28B
:101BA000584340031189000E090A090201431181BB
:101BB00010BD00002020005080E100E080E200E045
:101BC00008E400E000230050002C0050F8B50202A9
:101BD00005464123092134480A3259F7E9FF2721F4
:101BE0000170044600201F233049AA008F581E1A96
:101BF0004936BE5D2718401C7E702028F6DB002089
:101C00003F238E581F1A4937F65D27182037401C8E
:101C10007E702028F5DB5BF7DDF80146601C5BF782
:101C200056FD002812D10A2000906A460521284658
:101C300052F74AF8284653F72FF8009960221143CB
:101C4000CAB201460123284651F7A8FF204659F79A
:101C5000C8FFF8BD70B505460446008914490C3428
:101C600088B088421AD100201F216E460A1AA25C51
:101C70003254401C2028F9DB2022314620465CF7F4
:101C800015FA00203F210A1AA25C3254401C202879
:101C9000F9DB20226946A0185CF708FA284649F7C4
:101CA00024FB08B070BD0000270D00002C7EFD074E
:101CB0002620000003460A780270401C491C002AB6
:101CC000F9D118467047F0B51FB40646002082B01F
:101CD00005464024019100901BE0019922460F46E1
:101CE000304600F0CBF9049A059B801A994110D335
:101CF0001046194622465CF71DFA361A8F410197A5
:101D0000224601200021009F5CF714FA38184D414B
:101D100000902046641E0028DFDC019B00982946C5
:101D2000324607B0F0BD0000F0B5074608465840FF
:101D300087B0C00F049048000E465900400849087B
:101D4000BC1A884105D2384631461E4617460B4616
:101D500002465800400810434CD0300D0390400517
:101D60005900400D490D0590401A0290402872DA42
:101D700018030121000B0905084301900498009203
:101D8000002805D00199524200208841009201901C
:101D9000029840210A1A019900985CF7CBF9054690
:101DA0000C466B4607CB00F07AF9C0197141039AD3
:101DB0000E0D0023D71756401A467A40164344D0DA
:101DC000049A002A2DD0029A012A039A15DC1205E2
:101DD000C01A914101263605001C7141D20F059EA3
:101DE000D2070093019202962A46234600F077F923
:101DF00007B0F0BD38463146FAE71605224A0F46CD
:101E0000B218C01AB74101210905001C4F41001842
:101E10007F41114618187941E20F10436D19644152
:101E200013E0E2076D0815436408C2071443039AE0
:101E300001261205C01A91413605001C7141CE07DA
:101E4000400830434908C01851412A46234600F053
:101E500039F9CDE7FFE7049801224000C117121AB3
:101E600000238B4104983146C417381AA141EEE78C
:101E700030B40124E407634030BC55E730B401249A
:101E8000E407614030BC4FE70000E0FFF0B51FB44D
:101E900088B00B990998002448400999C00F49005F
:101EA00049080991C0070B990090490049080B9116
:101EB00009990898A64608431CD00B990A9808432C
:101EC00018D0099801244000420D4800410D09989E
:101ED00024050003000B204309900B980003000B1E
:101EE00020430B9050181C494018002201901446C2
:101EF000104605E0002001460DB0F0BD032801DAD0
:101F0000034600E003239C46C11A0AAE0AE05F00C4
:101F100008ADED5B4F00F75B7D430027AA187C41BD
:101F2000491C5B1E6145F2DD410004AB5A5221049D
:101F3000120C0A43240C401C0828DFDB0198029095
:101F40000099704601910090059B049A07990698A4
:101F500000F0C5F8D0E700000DFCFFFFF0B50C461F
:101F60005C4085B0E40FE40703944C00002664084D
:101F700059009446490802460296224321D06246FF
:101F80000A431ED06200570D4A000E032303550D6D
:101F9000012402462C492405781B1B0B360B4018E4
:101FA00023432643614600901C46501AB44103D394
:101FB0000098401C009002E0921800985B410028B5
:101FC00003DA0020014605B0F0BD0020012109051B
:101FD0000746864611E064461D46141BB54106D3EC
:101FE0006546521BB341744607430C43A646CD07D2
:101FF00040084908284392185B4105460D43EAD141
:102000001046184313D060461946504071400843AB
:1020100006D06046101AB34106D20122002306E022
:1020200000220123DB0702E00122D2435310009873
:1020300074460105381C6141029C039D00196941E9
:1020400000F040F8BFE70000FD0300001CB50948A0
:1020500000900948019005460126009C05E0E368D0
:1020600007CC33430C3C98471034AC42F7D3FEF70F
:1020700053FA00008CE4FC07BCE4FC0710B5202AEE
:1020800004DB0846203AD040002110BD0B46D34067
:10209000D0402024A21A91400843194610BD10B523
:1020A000202A06DBCB170846203A1041C1170B4304
:1020B00006E00B461341D0402024A21A9140084369
:1020C000194610BD10B5002B08DA0024401C6141F0
:1020D00092185B411A4301D14008400010BDF0B591
:1020E0001FB482B005460C0003D0084607F062F921
:1020F00002E007F05FF920300246009021462846B2
:102100005CF718F8049B059A04460F4618431143E0
:10211000084314D0184610431BD0009840210A1AD7
:1021200018460599FFF7AAFF05460E46009A05993D
:1021300004985BF7FFFF084305D0012004E0204628
:10214000394607B0F0BD0020C11705430E432C43AC
:10215000374300990E986305401A7905E40A002276
:102160000C43FD0A0A3002D500200146E9E70105CB
:10217000101969410C9C0D9D00196941FFF7A2FFE0
:10218000DFE770B54B005B0803430BD04B005C0DE1
:10219000002633466542B341D417AD1AA34102DB92
:1021A0000020014670BD12053018514170BD00007D
:1021B0000EB5C217C10F5040CA0740180021054B89
:1021C0000293019200910A460B46FFF788FF03B085
:1021D00000BD0000330400000EB505490291002146
:1021E00000910A460B460191FFF779FF03B000BD4D
:1021F0003304000070B5CD0F4A0009030123090B19
:102200001B0519430B4BED070024520D9A4201DACE
:10221000002070BD074B34339A4203DC9A1AFFF753
:102220002DFF02E00449511888402C43F1D0404270
:1022300070BD0000FF030000CDFBFFFF014801213E
:102240000180704708150050FEB505252C076089F0
:102250008007574E23D0A08A400701D505F0B4FB74
:10226000218C802001432184FF2171800421318051
:10227000218830220A432280218803220A432280B7
:102280004C49F288B3881204D2188A42F9D33580B7
:102290004621494A515A6180218C81432184474813
:1022A00001884907FCD4218830208143218022887D
:1022B000032101918A43029422800022029C01237F
:1022C0001A403F490A702A064FD06D1E32880227F5
:1022D00017439F4337800422728037881743378023
:1022E0002288024322802288019F3A43228032883A
:1022F000520701D500BFFAE72288014682432280B7
:102300002288BA432280F288B7881204D2192D4855
:102310001218042A13D94822002727488752077C1D
:10232000002F01D019221701234A926E921CBA4243
:1023300000D33A46204FBA661A460846BFE74825FA
:102340001D48425B521C425392B2142A0DD3002204
:102350004253037D002B00D01323174A926E521E66
:102360009A4200D81A4614498A66029A5189890706
:1023700007D05189019881435181508C01218843B4
:1023800050841089802101431181108A04218843DF
:102390001082908A8007FCD53FF7F1FF0648406E17
:1023A000094908600948016801684907FCD5FEBD74
:1023B00000160050E90300006438FD0708330050A0
:1023C00054E5FC0761F8FFFF0802004010000040E0
:1023D00080B505F0D3FD80BD02480188C907FCD156
:1023E0007047C04640300050B0B5054C20212180D8
:1023F000044902250D80FFF7EBFFE587B0BDC0461D
:102400000430005044300050B0B5C84920220A8042
:10241000A94C02256580FFF7DBFF2580B0BDC046D3
:10242000F0B591B004920A91019017980690C01DE2
:102430000090169D281D029000200790199810907A
:1024400018980C9003951878002800D11CE141B22F
:10245000002955D4002D63D005932978401A6A7855
:102460006ED4AB78072114460F910C40611E8C414D
:10247000D108089409190993594348430E922A46F2
:10248000029B1D186818D2784A4399180E9A884200
:1024900056D80198079908180D90002398B2099909
:1024A00088424BD20A980B931C180026B0B2904277
:1024B00021D237460F9807408021F94028780840FC
:1024C0001099FF2906D1002810D00D98801980B2EC
:1024D000A1B205E00D998919002888B2A1B201D0F6
:1024E0000C9A00E0109A00F04FFB0E9A072F00D1D3
:1024F0006D1C761CDAE708982D180B9B5B1CCDE74A
:102500000699002900D1BDE000210A46052900D125
:10251000B1E004468C4024061AD5491C521CF5E74C
:102520000699002900D1ADE0202800D0AAE0049847
:1025300007990818069949784908A1E00398427854
:1025400004980799081880180790059B039D99E047
:1025500091B2042917D003290AD0022900D08AE0B9
:102560005978002900D186E05B1CC006420D1CE0B2
:102570005A78002A7FD0997800297CD09B1C0007CC
:10258000000C92060FE05A78002A74D09C78002C38
:1025900071D0D97800296ED0DB1C4007C00A9206A2
:1025A000920B1018A206120D12183F20084010437B
:1025B00060D00593069B5A78072114460E910C4073
:1025C000611E8C410F92D10808940A1999780991DB
:1025D0004A430221C943891AD21CDB785B1C0025BF
:1025E0005B1E46D0AC18069E75192E7936046F799D
:1025F0003F02BE19AD79751985422546F0D10819FB
:102600000199079A51180D9100990F18002290B264
:10261000099988422DD20A980B9216180025A8B263
:102620000F99884220D22C460E9804408021E14028
:10263000387808401099FF2906D100280FD00D984E
:10264000401980B2B1B205E00D994919002888B24D
:10265000B1B201D00C9A00E0109A00F095FA072C64
:1026600000D17F1C6D1CDAE708983F180B9A521CAA
:10267000CDE7059B039D04980799081806994978AA
:10268000401807905B1CDEE611B0F0BD0A48082137
:1026900001800321090241810122428000228280BF
:1026A00002220280C18021488022028041822022B1
:1026B0004280C1817047C0464230005080B50A2038
:1026C00000F036F880BD80B50B2000F031F880BDF9
:1026D00080B50C2000F02CF880BD80B50D2000F0F6
:1026E00027F880BD80B50E2000F022F880BD0000E4
:1026F00070B50E4C049D002D254600D1A51C012669
:102700008E40032800D10420400146531A4349005B
:1027100008180019828070BD01228A40032800D168
:1027200004204001014942527047C0460230005027
:10273000F0B503460A3B01210A469A4093B20B4D7D
:102740005C19661C5E400A4B1C8800272E4203D091
:102750007F1C7608B6B2F9E79443BAB20D469540AD
:1027600025431D8081401A480160F0BDFEFF010035
:102770000E1400500348C82101800348082101803D
:10278000FEE7C04600310050023300500248008886
:102790000F481021016070472C1300500B4801892D
:1027A00004220A430281018902220A43028101882C
:1027B00040220A430280064901220A604189054AF3
:1027C00011408918091D41817047C046080000501A
:1027D00080E200E0FC7F0000F0B52020E84A105CB9
:1027E00001281BD1107E002800D00D20516A127FD5
:1027F00000231C46D42C01D31D4600E001251540C2
:10280000012D0BD10D460646002E04D0FF272F7058
:102810006D1C761EF8E70918641CEBE7F0BDC04696
:10282000F0B58DB0059206910390F9480178012921
:1028300000D0DCE00079002800D1D8E00398400007
:1028400003210A1A0025012B6ED1069E694C0398BC
:1028500001B228B20791884200DDC8E00292392017
:102860000590401BA2210491491B2A4639322B4670
:10287000A2339BB20B9389B20A9191B2099180B2B3
:10288000089001952A4610B2079988423ADC104612
:10289000393085B201270B9829460C9232463B46C7
:1028A000A0470A98294632463B46A04704980C990F
:1028B000401A85B22846099932463B46A047284629
:1028C000089932463B46A04705980C99401A85B2B4
:1028D0000A98294632463B46A0470B98294632467D
:1028E0003B46A0470C98A23085B22846089932464C
:1028F0003B46A0472846099932463B46A0470C9ADA
:10290000521CC0E7029A10B2002807D4039B019919
:10291000C81A80000A305B1E039302E00199880008
:10292000801D82184D1C92E7059F039800B229B2C2
:1029300081425CDC2846A23080B20B900399393189
:1029400089B20C910292069C22463B46294EB04722
:10295000A2200A90401B80B209900C9922463B4667
:10296000244EB04703980A99081A80B20790294666
:10297000393189B20A9122463B461E4EB04739266C
:102980000C95701B81B20891079822463B46194D61
:10299000A8470398301A86B20998314622463B462A
:1029A000A8470B98314622463B46A8470398A230D9
:1029B00085B22846089922463B460E4EB047284627
:1029C0000A9922463B460B4CA047029A10B20028B7
:1029D00007D40C9D0399681A80000A30491E0391A0
:1029E00002E00C9DA800801D82186D1C9DE70DB0B3
:1029F000F0BDC046B92AFC07F0B58BB00293059232
:102A00000A91074682490878002800D0D4208742DE
:102A10000CD80979002900D068210A9A8A4205D881
:102A2000059A824202D80298884201D90BB0F0BDC3
:102A30000020C043012302990A9A8A420493019319
:102A400000D3019005998F4200D30490119808900B
:102A50001098079002980A99401AC1174840421AE4
:102A60000598C01BC1174840401A0990851A039267
:102A700050420690BCB20A9886B220463146079A68
:102A8000089B00F019F868000699814207DC059858
:102A90008442CBD004983F1803982D1A68000999F6
:102AA0008842E7DC02988642C0D00A980199401813
:102AB0000A9009982D18DDE7FEB51C460292544A8B
:102AC0001378002B00D0D423984205D81279002A1D
:102AD00000D06822914200D9FEBD4F1E401E0090DA
:102AE000002188B2A042F7D2009801914018002539
:102AF00086B2A8B2A04207D2781981B23046029AB3
:102B000000F042F86D1CF4E70199491CE9E7C04662
:102B1000FEB5029315460E4607463D490878002843
:102B200000D0D42087420AD80979002900D0682132
:102B30008E4204D8854202D80298884200D9FEBD50
:102B4000089CB1B202988142F9D201200094019010
:102B500038462A460B46FFF74FFF761CF1E7C04682
:102B600020202B4901220A540A730A720548486240
:102B70000A770A76002008750A740A710A7070478D
:102B8000C8E4FC07DA1EFD0770B5214B1C78002C49
:102B900000D0D424A04239D81C79002C00D068245D
:102BA000A14233D81D7C002D0C4600D104461E7A6C
:102BB000002E00D06826B44228D81E7B002E00D0FC
:102BC000D426002D01D0C0433118187D002801D033
:102BD000C843311888B2B04218D82021595C012965
:102BE00014D1E1085D6A69181B7E002B00D00D230B
:102BF00058430B5C07252C408025002A02D0E54075
:102C00002B4302E0EA43224113400B5470BDC046FF
:102C1000C8E4FC077047F8B515460A460446093271
:102C20000C2110465BF7C8F90E469920470038463C
:102C30004843401D0A215BF7BFF92818092E00D927
:102C4000641EA5B2A90840183B376743C419642124
:102C500028465BF7B1F9C043041919200101284641
:102C60005BF7AAF9201880B2F8BD7047F8B5214C7F
:102C7000D14D214EA1880F200840022809D00428F8
:102C800004D00C281ED00128F4D131E006F0BAF8A7
:102C9000F0E7E86D4422A95A4023EF5AB94218D20E
:102CA000A388C0271F40C02F03D133889B0703D4BC
:102CB000E0E7238A9B06DDD54B1CAB52415C221F0B
:102CC0001180E7E706F09EF82088012188432080E4
:102CD000D0E72088022188432080208880218843F3
:102CE0002080286E0028C5D0E85A06F045F8C1E7D4
:102CF000F8BDC046041100507C11005005200007AB
:102D00000188302291430180018803229143018090
:102D10000421415E002906D50E490A88520702D5D2
:102D20000A88D2070DD18088C00609D50A480188D3
:102D3000090605D501218180018880229143018007
:102D400070470888022202430A80088801229043C3
:102D500008807047000200500001005010B5046860
:102D6000091BFF31994208D3194606E013782370F6
:102D700003685C1C0460491E521C0029F6D1002027
:102D8000207010BD3848018802220A43028005499C
:102D9000491C02D202889207FAD40021018140899D
:102DA0007047C0465F79FEFFFEB5054614480290A5
:102DB00002AC204600F028F8142000F05FF807204D
:102DC0008601002D00D08036274F38880D490840F5
:102DD00080193880FFF7D6FF0190012000F04EF8EF
:102DE0000025A570204600F00FF8388805490840F6
:102DF00080193880FFF7C6FF3D8001994018FEBD5D
:102E0000010001013FFCFFFF10B51749174A0A8076
:102E100000224A80164A40231360BFF34F8FBFF34E
:102E20006F8F00281ED00A88124B13400278D202FE
:102E30001A430A80104A134640330C881C404378DA
:102E40009B0123430B800B881340827892029A18CF
:102E50000A8009224A804A8802239A43C0784000A7
:102E60001018488010BDC0460015005001400000F9
:102E700080E100E0FFF70000FFFBFFFF00280CD01F
:102E800000BF00BF00BF00BF00BF00BF00BF00BF4A
:102E900000BF00BF00BF401EF0E77047F8B5352007
:102EA000C64E30561B490C461F34002800DA214616
:102EB0007F2210400D1804F0CDFCE6492E31062289
:102EC00028465BF7F3F824203146365C23200D5C5E
:102ED000114809210422412358F76AFE074645702C
:102EE00010203870B81C0B492A465BF7DFF8212008
:102EF0003E5438462230214632465BF7D7F83846F2
:102F000058F76FFE0548064900F0D0F92221AB4A78
:102F10005054F8BD4839FD070E0D0000B80B0000F5
:102F20009D2EFC07B0B5A548C17E01291DD1817F2A
:102F3000002901D1012100E08021437F5C1EA341D3
:102F40009B01057F0A4C002D04D0E31859800A2309
:102F5000002104E0234319807D218B0001210177AA
:102F6000734811461A4600F0E7FC0020B0BDC04689
:102F70000230005070B5252090490E5C0124630298
:102F80000E480F4D012E07D1CE7F012E09D16B8047
:102F90000023CB770A2308E02B80042159F7A4F8FB
:102FA00007E02B80CC774B218B0011461A4659F74E
:102FB00051F8002070BDC0466438FD0715040000BC
:102FC0004230005070B58D48092104241C2322464C
:102FD00058F7EEFD05461B2028702426304603F0E6
:102FE00097FE0121A9742C820021E981064AAA8159
:102FF000FF2202322A816C606E806870A9722846B6
:1030000058F7EFFD70BDC046AD270000B0B50546CE
:1030100024203FF714FC01460920800204242246A4
:10302000234658F7C5FD0021417005703822634DD5
:10303000AA5C8270C17058F7D4FD0120A877687728
:10304000FF200230688314480A22214659F702F80B
:10305000B0BDC0461FB5144606220292044A019232
:10306000069A00921A46234600F000FB04B010BDF9
:10307000FCC3FC0710B5144600F010F84F48827EE0
:10308000002A00D0034A0448214600F055FC0020E5
:1030900010BDC046701700001304000070B501F0A9
:1030A00003F804463826454DA85D84420FD22420FB
:1030B0003FF7C5FB01461D480422022358F778FD5F
:1030C00044700021017058F78CFDAC552046E97E14
:1030D00001292AD1164C062812D8687F411E884142
:1030E0004000A97F002900D00721FFF715FB012030
:1030F00028777D2082000421204658F7ABFFA85D89
:103100000D2812D3E87E012809D1687F411E88412D
:103110004000A97F002900D00721FFF7FDFA042114
:10312000204658F7E1FF0020287770BD02240000F8
:103130001404000070B531480921042418232246E4
:1031400058F736FD05461B202870FD26304603F053
:10315000DFFD0021A982E96029616C606E806870E2
:10316000284658F73EFD70BD0120704710B5134842
:10317000C17D134ACCB20C236343D45CFF2C06D030
:10318000D318491CC1755B68002BF3D00DE0017E9C
:103190000C4ACCB21C236343D45CFF2C08D0D31858
:1031A000491C0176DB68002BF3D09847002010BD46
:1031B0000021C1750176012010BDC0466438FD07AD
:1031C000D0DDFC07A4C5FC0770B50C480921042418
:1031D0000A23224658F7ECFC05461B2028701426CB
:1031E000304603F095FDFF21743129816C606E80BB
:1031F0006870284658F7F5FC70BDC0461B0D0000EE
:103200001FB5144601220292044A0192069A0092C6
:103210001A46234600F02AFA04B010BD3CC4FC074D
:1032200010B5044601020A3109480422022358F766
:10323000BFFC0C216143074A51184B2200238B54D9
:10324000132141700121017058F7CBFC10BDC0461D
:10325000040E0000E038FD07F8B500920D4681002D
:10326000104A56585418002E0AD101020A310E484D
:1032700004271E233A4658F79BFC06460770206039
:10328000B71C102138465AF72AFF38462946009ABB
:103290005AF70CFF01207070304658F7A2FC00204E
:1032A0002060F8BD5C1EFD07140E0000B0B50028BC
:1032B0000BD0024600241D4823460A2B12D0056875
:1032C000002D09D0001D5B1CF7E78748C82101804D
:1032D000864808210180FEE701605C1CE0B21146CF
:1032E00000F06CFFE0B2B0BDF8B50446401E0928FE
:1032F0001AD8A0000D494018071F3868002813D0BD
:103300000B4DA84210D00B482018401C0426314613
:1033100058F7EAFE3D60082306483146324658F722
:1033200047FC047058F75DFCF8BDC046AC39FD079A
:10333000A98CFC0702040000F0B585B0039302924B
:103340000E4607460020041D242C0ED004A900912F
:103350000AA10D5838463146029A039BA847002817
:103360002046F0D104A8007806E038463146029A9B
:10337000039B05F02BFE002005B0F0BDC935FC070E
:103380000938FC07E935FC073D36FC070132FC072C
:103390005530FC071137FC076931FC07FEB50646BE
:1033A00008050D0B002800D06D1C012D00D801254B
:1033B00083480640FF2000241A4F0195AC422CD0D0
:1033C00004F04AFE002828D104F0C6FE002824D1CB
:1033D000022004F0DDFE012040070296304304F095
:1033E000EBFE0026104D04F07FFEC0070CD038889D
:1033F0000006F8D528680004F5D40C4886420BD0A6
:10340000761C58F7EAFFEEE7029805490818461CB3
:10341000641C0020019DD1E7FF2040B2FEBDC046E4
:10342000FF0F0000080000503000004080841E00A4
:10343000F0B585B08A4206D2A648C8210180A648C8
:1034400008210180FEE71746039080180190C81EEE
:1034500002900026009104913046C4B20298844242
:1034600019DA3D46E7433FF786FA010E019AD15536
:10347000D1192F46491E020C0A70291B039A5118B4
:10348000CA1E030A1370091F08700498001F0490D5
:10349000201D361DE1E7F0B2009981420FD100995D
:1034A000C843C019039A1018791AC9B2002904D068
:1034B00000220270491E401EF8E705B0F0BDFF2053
:1034C000C043F143014301980C180498C0B2C500F1
:1034D0003FF751FA18216A18182AE0D00246CA406C
:1034E0002270641E0839F6E70031005002330050A4
:1034F000F0B585B014460F46029031480840884226
:1035000002D13846214608E0E1190A467A40120BFA
:1035100005D0012212038018091AFFF73FFF00258A
:10352000284604F035FEFF2626488068C01B8442EA
:1035300000D304463E43009522460194A5423CD266
:10354000D019B04201D8049202E0F01B401C049054
:1035500004F082FD002831D104F0FEFD00282DD1B9
:103560000396022004F014FE04F02CFD01267006E0
:103570000743384604F002FD002004F009FE0498D9
:1035800087B2FF2F00D9370202984419380405D0BA
:10359000207804F0F3FC7F1E641CF7E704F00AFDBA
:1035A00004F0C6FD002809D104984519019C621B4E
:1035B000300203990E184F1CC0E7009805B0F0BD0B
:1035C00000F0FFFF58E6FC071FB514460E220292DA
:1035D000044A0192069A00921A46234600F046F8E1
:1035E00004B010BD44C4FC0710B5014601200A4ACE
:1035F000914210D3121D91420DD8029CF231C8B2F3
:103600008100064A5058002803D0511800220A6051
:1036100080470020207010BD0E040000481EFD07EA
:103620001CB52823744CE35C132B03D101AB04F0CD
:103630002BFD1CBD0020C0431CBDC0461FB5144659
:1036400007220292044A0192069A00921A462346E1
:1036500000F00CF804B010BDB4C4FC07E0B504F0F1
:103660004DFD01A804F0BEFC8CBD0000F0B585B096
:1036700001250C9C002C20D001950291039304920B
:103680000B9B0A99E500ED18083D661C104B761E51
:10369000012E11DB2C462F88874203D02546083D9A
:1036A0009F42F4D16468002C0AD00D4602AB0ECBC9
:1036B000A0472870002500E0019D284605B0F0BD18
:1036C0009848C8210180984808210180FEE7C0463B
:1036D000FFFF0000003100500233005070B50B486E
:1036E0000424092122460B4658F762FA05461B209E
:1036F0002870FC26304603F00BFB002129726C6019
:103700006E806870284658F76CFA70BD1B0D00007B
:103710001FB5144604220292044A0192069A0092AE
:103720001A462346FFF7A2FF04B010BDECC4FC0705
:10373000F8B504461C48C0680F210140E171010F33
:103740002171C1B20909A1710101090F6171010360
:10375000090FE1700102090FA1700105090F6170E5
:103760000004000F2070012200920322150208239A
:103770000E4F2A46B847E179A07900260096072324
:103780002A46B847E178A078009606232A46B8472B
:1037900061792079009605233246B8472078617810
:1037A000F54A51721072F8BDE038FD07F126FC07AA
:1037B000F8B52824F04D285D032817D1EFF31087C2
:1037C000012686F310880D480188B14301800C481A
:1037D00001880C4A0A40028004F0ECFB002F02D062
:1037E00086F3108802E0002080F31088142028550A
:1037F000002004F0A7F8F8BD6438FD07001200505F
:1038000004000050FFF70000B0B50C464149884263
:1038100031D0414A90421CD04049884238D120786A
:10382000401E092857D88000404A1158414B994200
:1038300066D03F48814267D13748042108230A46B1
:1038400058F7B6F9217801706168416058F7C9F9F5
:103850005AE02078411ECAB2092A35D88900334A75
:103860005358334DAB424FD151188A6A0A60616890
:1038700000F0A4FC48E06268002A33D02848824265
:1038800037D2207824494018042158F7E3FB3BE065
:10389000531C012198423AD30A32904237D8C1B220
:1038A000091F8A00214B995800292DD0204CA14294
:1038B0002AD0204CA14227D09A18C01E00231360A2
:1038C0009362C0B288471FE0FB48C8210180FB48D3
:1038D00008210180FEE7F848C8210180F748082147
:1038E0000180FEE7F448C8210180F44808210180E6
:1038F000FEE7F148C8210180F04808210180FEE779
:1039000010180021016081620498002101700846AE
:10391000B0BDC04601040000030400000204000022
:10392000FDFF3F000031005002330050AC39FD076D
:10393000AB8CFC07A98CFC0780B5012A00D80122BA
:10394000034B9A4200D31A4658F784FB80BDC04609
:10395000FCFF3F00FEB51F460D460646002801D479
:10396000002000E0012029460A394B424B41034028
:10397000019300D07642002A01D0372000E0572082
:103980000290089800903C46304629465AF714FBAE
:1039900029464143711A0A2901DB029A00E03022CC
:1039A00089182170641C00280646EDDCE01B009A93
:1039B000904203D230213954401CF9E73A1801985B
:1039C000002802D02D201070521C00201070D01B37
:1039D0004108521E002907D03B7814783C701370C0
:1039E000491E521E7F1CF5E7FEBD000083B0F0B5F6
:1039F000CAB006464F91509251934FA80190029041
:103A000003A84990FF20C543317803AA4998871A33
:103A10003A46FF3AAA4200D280E025290ED17478B6
:103A2000B21C302C11D11178002977D03039CAB2AC
:103A30000A2A00D30021F478321D07E0761C0170B9
:103A400000214170401C49905DE000210423234384
:103A50006C2B02D11478561C00E01646582C23D04B
:103A6000632C54D0642C29D0692C27D0732C3ED0E1
:103A7000752C19D0782C17D0002C4FD049A803AF43
:103A80002523394631A2FFF769F94998C11BFF394F
:103A9000A94204D3047000214170401C499049A8F8
:103AA00003A9022333A22CE0019A01CA0192C9B2F0
:103AB000752C0FD100910A21002210E0019A01CA51
:103AC0000192C9B200910A21002243AF3B46FFF7A1
:103AD00041FF12E00091583C62426241102143AB29
:103AE000FFF738FF034649A803A943AA09E0019854
:103AF00080C80190384600F073F8034649A803A92E
:103B00003A46FFF72BF93178002904D07DE7019A76
:103B100002CA019293E703A849990F1A012F0FDBFC
:103B20002D4C25787819000A02D000F027F8257866
:103B30002A48401903A93A465AF7B8FAE8192070FA
:103B40004AB0F0BC01BC03B00047C04646415441F6
:103B50004C3A20756E737570706F72746564207066
:103B600072696E7466206368617261637465723A2B
:103B7000200000002E0A00006438FD07F8B5164842
:103B80000078401D032157F705FF0446002705462E
:103B900080C5114806781149284632465AF786FAF8
:103BA000AF550D4DEFF31081012080F310886A6D41
:103BB000002A06D013461268002AFBD11C60276039
:103BC00001E06C656870002902D080F3108801E084
:103BD00087F310882F70F8BD6438FD0758E5FC079F
:103BE00000221146835C521C002BFAD10846704714
:103BF000B0B50C460025202D04D03EF7BCFE605524
:103C00006D1CF8E70020B0BD00207047F8B51E46D7
:103C100014460D46104658F780F9002801D00226B8
:103C200028E0242003F0D8FF07462620395C2878B6
:103C3000884214D26978642911D83A462632009213
:103C40003818817601262046314658F734F900208D
:103C5000009948700C3D7D6100F080F80AE006484C
:103C600001233146224657F7A3FF8121017057F700
:103C7000B8FF00263046F8BD03240000002070473E
:103C8000082904D20069401800214177704778481C
:103C9000C8210180774808210180FEE7082904D265
:103CA000006940180021417770477148C8210180A0
:103CB000704808210180FEE70031005002330050B7
:103CC000B0B5054604696069002801D057F7DDFEEC
:103CD00000202861204657F7D8FEB0BDF8B51E4633
:103CE00015460C46104658F718F9002801D0022650
:103CF0002EE0242003F070FF07462078082815D80E
:103D000050F7BEFF1349884210D00126284631469D
:103D100058F7D1F8207838186178417727200021AA
:103D200039540C3C7C6100F019F811E04F48022333
:103D300031462A4657F73CFF21780170082902D8FE
:103D40007621C94300E04021417057F74AFF002621
:103D50003046F8BDFFFF000000207047FEB524206C
:103D600003F03AFF06464069002821D083883E4F81
:103D7000BB4224D00922920293422FD101932722E1
:103D8000B25C07460E37017B029134461D3435463E
:103D90002736012A29D80299635CD340DB0704D077
:103DA000BB5CA918897E8B423DD1521C3270F0E772
:103DB0002F48C82101802F4808210180FEE72721D4
:103DC000745C35462735072C13D83119497F027B9F
:103DD000D140C9071FD1641C2C70F4E72448C821C6
:103DE0000180244808210180FEE72E46019B1E4FDA
:103DF00001E0FF210291BB421ED0092189028B42C2
:103E000027D1C28801891948022357F7D1FE0299A8
:103E10000170411C18E0E1B2304600F011F9287839
:103E2000401C2870FEBDD2B22846029900F008F965
:103E30003078401C3070FEBDC28801890B48801C60
:103E4000012357F7B5FE014600220A7057F7C9FE55
:103E5000706957F71AFE002171617288914810400D
:103E600058F729F8FEBDC0460224000001240000D6
:103E70000031005002330050F8B500920E4605465E
:103E8000242003F0A9FE078B2530002232704378EE
:103E900080219A421ED2BCB2A5421BD3A11CA942CA
:103EA00010D20478D440E40703D0491C8CB2A54258
:103EB0000AD0022B03D3491C8BB29D4206D0521C60
:103EC0004F1CE3E7E81B02E0032000E00420009918
:103ED000087000210846F8BDF0B591B00C910B9028
:103EE000169F3878401E012800D981E01D460792B0
:103EF000282401212046059157F74CFD064621460E
:103F00005AF7EDF80A96253638780D9670701E210E
:103F1000069529407F22D2438918002404253A4679
:103F200010AFC9B2089123460992002B59D184429F
:103F300057D20E970FA80721017016197078A0406C
:103F40000D9B197801431970505B51194A8812046E
:103F500010188A88C9880A9B585108048018591972
:103F600048607078012804D10FA80F2101701F202C
:103F700000E017200D994978022901D30FA9087094
:103F80000C9800880E9F38800B98808A0021009141
:103F9000019028480290089803900FAA05233846FC
:103FA00025494CF728FB0346002814D1717838883E
:103FB000012901D1014600E0411E491D0C9A1180E2
:103FC000717801290E9F06D1801C80B21B491E46C4
:103FD0004CF7CFF93346BF1C0835099A1078641C9A
:103FE000A3E7002B06D00A981C4657F74EFD1CE0AD
:103FF00081241AE010980C9908800B9A0A9B13618F
:104000000B49516018832420D0820598D08118462E
:104010001C3090600698C003079908431880908A66
:1040200058800024214657F746FFE0B211B0F0BD9A
:1040300050C5FC0714C5FC070F1800000102000062
:10404000F8B5144605464088CD4A0240C12000011B
:1040500009020831092357F7ABFD064612203070DC
:10406000242003F0B9FD014625314A7894420CD250
:10407000008B002294420AD00B78DB43D340012707
:104080001F40C01B401D521CF4E7002000E0801CB4
:104090000121F180B0802819807E3072304657F7B8
:1040A000A0FDF8BDFF7F0000F8B50125E802314C06
:1040B000218801432180A803218801432180208891
:1040C000284320801420FEF7D9FE6802A080E080FB
:1040D0002803218801432180208827490840208027
:1040E000AD02FEF74FFE21882943218055210F01A3
:1040F0000097B03740003E1A1F48451CFEF742FEAD
:10410000A18829403143A1804000381AE188294024
:104110000143E18020881849084020802088174901
:104120000140218000242046FEF73EFE80B20109B6
:104130006E2901D964241BE0009A1146E0318842BF
:104140000AD900040F494018BF2159F735FF48210B
:1041500041430C0C1C340BE0904209D9000408497F
:104160004018E02159F728FF18214143080C041D8D
:10417000E0B2F8BD00150050FFFBFFFFFFEF0000AD
:104180000000B0FA0000D0F910B50446FD203EF75B
:1041900056FB014608480422082357F709FD02216F
:1041A000818041800121417021786278120251188A
:1041B000C18057F716FD10BD06FD000070B50C4616
:1041C000054619490888000618480ED5184A12688D
:1041D00012040AD4174A1288D20706D14019801C4B
:1041E0000421224657F736FF70BDEFF310830122FA
:1041F00082F310880988090603D40F490E881643F4
:104200000E80002B02D082F3108802E0002181F39F
:104210001088042108230A4657F7CAFC4460057039
:1042200057F7DFFC70BDC0460800005001040000D5
:10423000300000405877FD070833005070470000F9
:1042400070B514460D460646FD2003F0C5FC002C53
:104250000CD0002D11D010300068002814D0017946
:10426000B142F9D141792980801D0FE09F48C821D2
:1042700001809F4808210180FEE79C48C8210180F9
:104280009B4808210180FEE700202880206070BD47
:1042900070B515460C46104657F73FFE002813D15F
:1042A000FD2003F099FC06460848082106232A460B
:1042B00057F77EFCA1884180A1790171B18862889D
:1042C0005118018057F78DFC002070BD180C0000BC
:1042D000FEB502920F460546FD2003F07DFC064622
:1042E0001036019734462468002C0DD02079A8425E
:1042F000F9D16079874214D00022304621463EF73A
:1043000081FC204657F7C1FB08370121384657F793
:1043100041FB0446394659F7E2FE304621463EF756
:104320001DFC019A62712571A01D029959F7BEFE0C
:10433000FEBD0000F8B50C46234D14350069009011
:104340000127224E112F0ED02879022808D1286883
:104350000088B04204D1F9B20022204600F028FAC9
:1043600014357F1CEEE702200099085E6249014087
:10437000C20B200210400843002157F79CFDF8BDF6
:10438000FF7F0000F8B5072915D80C460E4D1435EF
:1043900001260E4F112E15D02879022808D1286841
:1043A0000088B84204D1F1B20022204600F000FAA1
:1043B0001435761CEEE74D48C82101804C48082191
:1043C0000180FEE7F8BDC046DCC5FC0702290000FD
:1043D00070B505460469264610363068002805D0B9
:1043E00030463EF79FFB57F750FBF6E70020286169
:1043F000204657F74AFB70BD7CB5FD2003F0ECFB6F
:104400008568002D1AD00446407B6E4601AA3146CD
:10441000FFF716FF3088082817D1217B019807295C
:104420001AD84A1C2273435C6E7B012E02D1DB0733
:1044300002D020E09B071ED41146F0E7F848C821BF
:104440000180F84808210180FEE7F548C821018075
:10445000F44808210180FEE7A068C28801896B7BCF
:104460002448012B19D1042357F7A2FB00218170A6
:10447000E98901801AE0A068C2882B8AC120000166
:104480000902083189B208339BB257F791FB0646FF
:10449000687B002817D1132016E0801C80B2062309
:1044A00057F786FB00210171E989418057F799FB95
:1044B000A06857F7EAFA0021A16062880E48104010
:1044C00057F7F9FC7CBD12203070A088E9890818E4
:1044D000B0802A8AF280304608301235294659F7D2
:1044E000E5FD304657F77DFB7CBDC04600310050EE
:1044F0000233005007FD0000FF7F000010B50446A6
:10450000FD2003F069FB81798C4202D2808800197A
:1045100000E0002080B210BDB0B50C460546FD207D
:1045200003F05AFB014682888020954206D38979A0
:104530008918A94202D9A81A20700020B0BD000035
:10454000F0B595B01E460292089105462824012137
:1045500020460D9157F71EFA0746214659F7BFFD31
:10456000079504972F61089B1E20019630403F213C
:10457000C943411803915F21C943411805917F2127
:10458000C943401806900022874E032A00D1CFE08D
:104590001D460798848A11A881490180511C8148D1
:1045A0000B91415C0C92875C781CC2B291420F91D6
:1045B000084600D810460E92F9430818C1B21820D8
:1045C00048431830032157F7E5F92988054601804B
:1045D0004480142420460A97784331180A79022A25
:1045E000069803D0042A059800D003982871A81DC6
:1045F0000969102259F75AFD0E9A544337190024BD
:1046000009972346D0180F99884246D23879102846
:1046100029D0042813D002283BD110932E462D19FF
:104620003868017840786876297628461A300E2155
:1046300059F755FDB868010C6985288523E010936A
:104640002E462D193868017842788378C078E8764C
:10465000AB766A76297628461C300C2159F73FFD47
:104660000D9880040AE010932E462D192846183024
:104670003968102259F71AFD0D98C004B96808432B
:10468000000C68852985B889311988850E9A3546C8
:10469000109B143718345B1CB4E76B712F46284607
:1046A0004BF7F1FB0E9B04460028099D13D03846BA
:1046B00057F7EBF9089B18880C99002901D1049948
:1046C00088800F990A9A891A08181880002C0B9A6A
:1046D000354E61D159E7388808990880002426466C
:1046E0000F988342E3D2002CE1D10C20285E761C87
:1046F0000024002819D4E989002916D02879022835
:1047000008D12868027840780002801811AA12881F
:1047100090420AD0F0B23A88101880B21C462B6939
:1047200000224BF78AFC2346044614355B1CD7E76E
:104730001120049A9071FD200799C8820D9DCD81AA
:104740001A484860888A5080104624308860019852
:10475000C003029908431080103210463EF7DAF980
:104760000024139412941436112D10D0307902289D
:104770000AD10B48FF3031680988814204D1E8B280
:10478000082112AAFFF7A4FD14366D1CECE7079868
:10479000808A214657F78FFBE0B215B0F0BDC046C6
:1047A0000328000098C5FC07DCC5FC0730C7FC07E0
:1047B000F0B585B008281DD215460C46064604AF54
:1047C00003AA08463946FFF73BFD3F88002F18D063
:1047D000039900291CD0009501AD28463A4659F7A7
:1047E00065FC0098A855204639462A46FFF770FD1B
:1047F00005B0F0BD4848C821018048480821018023
:10480000FEE74548C8210180444808210180FEE7B1
:104810004148C8210180414808210180FEE7C04687
:104820000031005002330050FEB514460E46FD2004
:1048300003F0D2F9054687880096768801942046D1
:1048400057F76BFB012802D102273846FEBDF0194D
:1048500080B202F0FFF900280BD002A9FFF75CFE3E
:1048600000280DD02C48C82101802C480821018047
:10487000FEE72948C8210180284808210180FEE779
:1048800001270198394657F716FB00202873009836
:104890000C38A86002986873FFF7AEFDD5E7C046F4
:1048A000FEB514460E46FD2003F096F905468788AE
:1048B000009676880194204657F72FFB012802D1F5
:1048C00002273846FEBDF01980B202F0C3F9002875
:1048D0000BD002A9FFF720FE00280DD00E48C821FA
:1048E00001800E4808210180FEE70B48C8210180A5
:1048F0000A4808210180FEE701270198394657F749
:10490000DAFA0020287300980C38A86002986873BF
:10491000FFF772FDD5E7C04600310050023300506A
:1049200010B50C46FD2003F057F9808861880818FF
:1049300080B2A188A31D002422464BF77EFB2046AF
:1049400010BD000070B514460D46104657F7E5FA45
:1049500001282ED1287801020831AA791648002AA8
:104960000CD089B20623224657F722F90646A878CA
:10497000FFF7C4FD80213171308013E0AA8889B22D
:10498000921D93B2224657F713F90646A878FFF70F
:10499000B5FD002131713080AA887280701DE91D3B
:1049A00059F784FB304657F71CF90021204657F78A
:1049B00082FA002070BDC046140C000070B5044699
:1049C000032800D2521E95B26818A908461864211F
:1049D000284659F7F1FA361A19200101284659F7E5
:1049E000EBFA3018A10005A28918091F09684018C0
:1049F000072159F7F7FAC8B270BDC04600000000A1
:104A0000030000000200000005000000000000009C
:104A10000300000005000000010000000400000089
:104A2000060000000200000004000000704770470C
:104A300080B559F729FB80BD80B559F72EFB80BDA5
:104A4000F0B585B00024204603F0A2FB03F0B2FAD3
:104A50003B27A84DE85D411E032900D92FE1C04640
:104A60007944097949008F44014C2F35382064215D
:104A70002954FEF713FBA5A0FEF7B8FFFDF706FECD
:104A80003A202C5C9C4D80266E807D20000104F035
:104A9000E3F82E80A04804F0DFF8002C5BD02C2037
:104AA000FDF7A2FC2820FDF7AFFCFDF795FC3220B6
:104AB000FDF79AFC00249C4D462C00D1A8E0285D0F
:104AC000FDF7A2FC641CF7E73A20295C002930D0EE
:104AD000042431E0FEF7E2FA8748C08FC00738D1DE
:104AE000EC5586A0FEF782FF1020FDF77DFC01202B
:104AF000FDF78AFC04A8FF2141700170FFF744FB19
:104B0000E3E03A202D5C2420FDF76EFC002D00D15F
:104B10009AE000247C4DD42C00D1A3E000260D2E79
:104B200004D0A85DFDF770FC761CF8E70D35641C19
:104B3000F1E701212954C4242220FDF755FC204629
:104B4000FDF762FC2020FDF74FFCE85D401CE855B6
:104B5000B5E0E85DB3E00397FDF73EFC12206F4C33
:104B6000A047FDF739FC7420A04754206C4FB8478C
:104B70007E20A0473B200290B8470125284601959A
:104B8000A047D3263046B84700242046B8472046E1
:104B9000B8472046B8471120604988472846B8479B
:104BA00044205E4DA8472046B8470C20B847452012
:104BB000A8473046B8472046B8472046B847204661
:104BC000B8473C20A8470198B8472C20A847502058
:104BD000B8470320A8471520B8470420A84741201C
:104BE000B847A820B84732263046B8473A20A847E9
:104BF0003020B8470298A8470A20B8473046A8474F
:104C0000484D462C42D0285DFDF7FEFB641CF8E7BA
:104C10003720424DA8470024414E2046B047204649
:104C2000B0472046B0472046B0474020B047204616
:104C3000B0472046B0472220A847C020B0472020D8
:104C4000A847FDF7C9FB36E02F4DD42C3FD00026F6
:104C50000D2E04D0A85DFDF7D7FB761CF8E70D35C7
:104C6000641CF2E72620FDF7BFFB0024264DD42C60
:104C700021D000260D2E06D0A95DFF204840FDF76B
:104C8000C3FB761CF6E70D35641CF0E7FDF7A4FBCB
:104C90004E20FDF7A9FB00242046B8474F20FDF722
:104CA000A3FBD3252846B8472046B8472846B8472F
:104CB0002046B847039F0F49C85D401CC8550006F1
:104CC00003D00A201949FEF7F1FA05B0F0BD2620FD
:104CD000FDF78AFB00240C4DD42CECD000260D2EC1
:104CE00004D0A85DFDF790FB761CF8E70D35641C39
:104CF000F2E7C0466438FD07023000506570645F1B
:104D0000736C6565700A0000DA1EFD076570645FEC
:104D1000696E69740A00000088130000E923FC072B
:104D20000924FC07C6A3FC0712A4FC07414AFC07A0
:104D30007047704770B505460469261D3068002825
:104D400005D030463DF7EEFE56F79FFEF6E7002011
:104D50002861204656F799FE70BD0000F0B58BB073
:104D60001E4607920F460446109806900088089049
:104D7000012200210B46092B13D006258D400991F5
:104D800021463446089EDE403846012737407E42A1
:104D900007462E40324326460C460999891C5B1C67
:104DA000E9E70A92802030439E210140A08A0391C6
:104DB0001D4902910190002000901C490AAA13236A
:104DC00038464BF718FC0546002829D108972027BC
:104DD00001210591384656F7DDFD0996064639460C
:104DE00059F77DF9266130461E3011496160A06097
:104DF0000898008830830598E0811420E082A08A1A
:104E000070800998C003079908433080069800888D
:104E10007083301D3DF77EFEA08A002157F74BF8C6
:104E200028460BB0F0BDC046C0C7FC070A180000FA
:104E3000A4C8FC07FEB5019302920C46142002F0B0
:104E4000CBFE2778082F14D80546418B008B3A46B5
:104E500000F0D4F800280ED060788D26802838D84D
:104E6000082F0DD0072F08D0062F0BD1082809D006
:104E70002FE081262DE082262BE0062802D228E0B2
:104E8000072826D12E1D35462D68002D0BD02979F7
:104E9000B942F9D10022304629463DF7B3FE2846F3
:104EA00056F7F3FD60780830012156F773FD05468B
:104EB0006178083159F713F92078287162786A719E
:104EC000A81DA11C59F7F2F8304629463DF746FEC9
:104ED0000026064802230199029A56F769FE2178B6
:104EE0000170467056F77DFE0020FEBD01140000E3
:104EF000F8B514460D46104657F70FF8012835D17E
:104F0000142002F069FE0646077F418B008B3A466B
:104F100000F074F80090707F010208312A7814487C
:104F2000974212D16A7889B2931D224656F740FE05
:104F30000746002038710098388068787880781D9E
:104F40006A78A91C59F7B2F809E089B2062322460B
:104F500056F72EFE07468020387100983880384674
:104F600056F73FFE0021204656F7A5FF0020F8BD6A
:104F7000140C0000F8B50F78092F19D20D4612A0B5
:104F8000C45DA01CC6B213481946334656F710FE3E
:104F90000646287830707470B8000FA10958B01C0C
:104FA000224659F783F8304656F71BFE0020F8BD1D
:104FB0000348C8210180034808210180FEE7C0465C
:104FC00000310050023300500B070A070F0F08068C
:104FD000070000000314000017E4FC07BAE3FC0715
:104FE000CBE3FC07BAE3FC07A1E3FC07A1E3FC0762
:104FF0002AE4FC0723E4FC079CC5FC07B0B58BB290
:10500000411C00200446092C09D01D46E540ED074F
:1050100002D0A24202D0891C641CF4E7481C80B272
:10502000B0BD0000F0B597B0D04E376A314634318C
:10503000384603F03BFE706A012400280BD039216A
:10504000755C381AE1210901884208D80020002D3A
:1050500004D0079005E03920355C00E00546776212
:1050600007943620C2490E5CAE4200D00D54372062
:10507000085C022800D1BDE0012800D000E1FDF766
:105080006FFDBC480475BC49416214AC38462146EA
:1050900003F00CFEE0780A902688A478FDF79CFBCC
:1050A000601CC3B20FAFB549384632460D9304F0C9
:1050B0006DF9FF200E90039000250295B04C0194ED
:1050C000B04800901420022109902A463B4627460A
:1050D000FDF7A6F9AC4C072D0FD00022AB4800908D
:1050E000019702920E98039008CC2801123080B2EA
:1050F0001421FDF795F96D1CEDE76421304658F752
:105100005BFF0D4619200101304658F755FF002D71
:1051100001D003213140484248410C2141439C4881
:1051200040180D990818401E00780B90012408467D
:1051300021463246FFF742FC06460025E7B20B98AF
:10514000874240D80D940FA892493A4604F01EF9C0
:105150000C95E8B20A2141430C462A34F0B2099A70
:105160005043054612350A9A974214D100270097FA
:1051700002461C320B4635330E302B31FDF7C8FC8E
:105180008248009001970E9802900397E8B2E1B22E
:105190000FAB3A4609E000227C480090019202924F
:1051A0000E980390E8B2E1B20FABFDF739F9761C27
:1051B000F0B206280D9C0C9D00D96D1C062800D964
:1051C0000026641CBAE714A8027943790FAD72A1D6
:1051D000284604F0DBF800206A49009168490191F3
:1051E00002900E98039096206E2101222B46FDF727
:1051F00017F94FE2FDF7B4FC5E4804755E49416261
:1052000014AC3846214603F051FD701B411E884105
:105210000799014301293CD107910B97E078099048
:105220002688A078441CFDF7D7FAE3B20FAC5349A7
:10523000204632460D9304F0A9F8FF200E9003900B
:105240000027029701974F48009014200125394606
:105250002A462346FDF7E4F84B4C072F1ED00022C8
:105260004A480090019202920E9803900F207843D2
:10527000083080B208CC1421FDF7D2F87F1CECE78F
:105280000798002802D1AE4200D103E200F0AEFA46
:1052900000E20FA9384603F009FD62E164213046BF
:1052A00058F78AFE0C4619200101304658F784FE53
:1052B000002C01D003213140484248410C21089183
:1052C0004843334908180D990818401E00780A9081
:1052D000084629463246FFF771FB064600270B9821
:1052E000ECB20A998C425DD80D9516A82949224640
:1052F00004F04CF80C97F9B2089841430D462A3552
:10530000F0B20F224243174608370998844213D15E
:10531000002400940B463733901D0C322B31FDF7DF
:10532000F7FB1A48009001940E9802900394F8B28B
:10533000E9B216AB224609E000221448009001921F
:1053400002920E980390F8B2E9B216ABFDF768F836
:10535000761CF1B206290B980D9D0C9F00D97F1C7D
:10536000062900D900266D1CBAE7C046E038FD07C3
:105370006438FD07C8E4FC07DA1EFD07E4E3FC0718
:10538000BAB4FC075EA4FC07D8A2FC0742B0FC0735
:10539000C0A2FC07E9E3FC07253032643A2530322D
:1053A000640000000FA903F081FC0798002800D1D9
:1053B000D7E00E98009073200A21D2226923FDF7CE
:1053C000A7FB2D200222002421462346FDF728FAC0
:1053D0005920C54328461E3001210D910C95049497
:1053E0000D990D2900D1B3E00B90FCF7E1FED64AF0
:1053F000D64BFCF74BFD2246D54BFCF7AFFD0546DF
:105400000E4604F09FFD0D9F044605910A9528461F
:105410000996314604F0E2FD0790069116A808901F
:10542000C7493A4603F0B2FF2046CB4E049C05998B
:105430002246C84D2B46FCF729FD22463346FCF791
:1054400073FCFCF7D7FE06460798069922462B46C2
:10545000FCF71CFD2246C14BFCF766FCFCF7CAFEBC
:10546000B6490091019402940E990391092FB54910
:1054700000D8091D89198AB2801FC1B21046224680
:10548000089BFCF7CDFF0A9D2846099F394604F08A
:1054900059FD2246B24BFCF7F9FC2246AE4BFCF715
:1054A00043FCFCF7A7FE06462846394604F096FD65
:1054B0002246AB4BFCF7EAFC2246A84BFCF734FC37
:1054C000FCF798FE0146022330462246FDF7F4FA27
:1054D0000B981E300D99491C0D910C9D80E7E0B290
:1054E000052158F769FD002930D02846FCF760FEF9
:1054F000954A964BFCF7CAFC00273A46944BFCF7BA
:105500002DFD06460C950D4604F01CFD3A46954BC4
:10551000FCF7BCFC3A46904BFCF706FCFCF76AFE35
:105520000E90304629460C9D04F058FD3A468D4BAE
:10553000FCF7ACFC3A46894BFCF7F6FBFCF75AFE4D
:10554000014601230E983A46FDF7B6FAAD1D641CDC
:105550003C2CC4D1A220392100220323FDF7ACFA50
:1055600005E02320FF2101221346FDF759F90FAC76
:1055700020790C2158F720FD1E204843FCF72CFE13
:1055800005460E4667793846FCF726FE0024764B22
:105590002246FCF77BFC2A463346FCF7C5FB734BDF
:1055A0002246FCF7C1FB684A684BFCF76FFC684B6E
:1055B0002246FCF7D3FC06460D46062078435A38AF
:1055C000FCF7F6FD604A614BFCF760FC2246604B3D
:1055D000FCF7C4FC07460E913046294604F0B2FCA5
:1055E000634B2246FCF752FC5B4B2246FCF79CFBCC
:1055F000FCF700FE0D903046294604F0EFFC2246F1
:105600005B4BFCF743FC554B2246FCF78DFBFCF74C
:10561000F1FD0B9038460E9D294604F093FC06469A
:105620000A913846294604F0D9FC0E900C910420CA
:1056300000940190A2253927284639460D9A0B9BE4
:10564000FDF7DAF94B4B30460A992246FCF71EFC6F
:105650002246414BFCF768FBFCF7CCFD06460E9852
:105660000C992246434BFCF711FC22463B4BFCF7BE
:105670005BFBFCF7BFFD0346022000940190284627
:1056800039463246FDF7B8F9032328463946224603
:10569000FDF712FA0024009489204500BC2008215F
:1056A0000C232A46FDF734FA00941535BE20032159
:1056B00011232A46FDF72CFA38261E4FBA5D1E4DDF
:1056C00028351F49284603F061FEBA5D10460A38A6
:1056D0005A2801D228A102E0092A03D827A1284686
:1056E00003F054FE0394FF2602960194134F009793
:1056F000BD20032122462B46FCF792FE39250D4999
:10570000485D01280AD10097019402960394CA20AB
:1057100096211CA32246FCF783FE06490448405DFF
:10572000002801D13A200C543B200C5417B0F0BD96
:10573000E038FD076438FD07C8E4FC0742B0FC0709
:10574000E9E3FC07F9FF0000182D4454FB21094050
:105750000080664000003E400040644000804C40B5
:1057600000804240000044400000E03F008056C0FE
:105770000000364000003F402025640020202564C2
:10578000000000004200000010B50E480E49FDF771
:105790008DFD50210D4C60523C20215C20540C4862
:1057A000026A511801620BA0FEF720F9FFF73AFCDC
:1057B0003B20215C002900D010BD01212154FFF7BE
:1057C0003FF910BD701700008957FC076438FD07CA
:1057D000E038FD0763757272656E745F756E697887
:1057E0005F74696D653A25640A000000F0B58BB0FE
:1057F000FDF7B6F9934D01262E7593486862FCF7C4
:10580000EBFF9249084634300890C2788078898E40
:1058100000912835431C8EA1284603F0B7FDFF24D4
:105820000394002702978E4801908E48009005202F
:105830000A90314632462B46FCF7F2FD0898C079B3
:105840000A2107914843884909182846FCF732FA8B
:105850008448009082480190099702970694039427
:1058600082203146049632462B46FCF7D9FD089C2F
:105870002679F0B2079958F79FFB054660790590A5
:105880007A4C0A982946A04722460920C44365431A
:10589000A819C1B22320904743272721072538465E
:1058A0002A462B4600F00EF9402138462A460A9532
:1058B0002B4600F007F9059FF8B2079958F77CFBD3
:1058C000064652203146694DA8477443E019C1B2DB
:1058D0007020A84708980079654F072816D3152827
:1058E00014D8072801D1634F10E00B2801D2624F72
:1058F0000CE00D2801D2614F08E001D1604F05E0B6
:10590000132801D25F4F01E0F8D15F4F0998462874
:105910001CD009901430002586B2462D12D02C469A
:105920000A9804403878A040000606D528468C30F6
:1059300080B200223146FDF727F9072C00D17F1CE9
:105940006D1CEAE70998401C7F1CE0E7089A9078F4
:10595000401CC6B24D49002586420CD10C2E0AD8F7
:10596000D278002A07D01F2A05D83848808E484BA5
:10597000C418032C17D22B462F462C460094504CAB
:1059800020463A4603F002FD364800903448019024
:105990000295069803905A2128462A462346FCF78A
:1059A0003FFD0BB0F0BDCA2C2B462F460A942C4667
:1059B000E4D809950A9CA3003749CB5845027701E2
:1059C0002F431743BB4201D9324BC418A3B29D00E9
:1059D0004F593146FDF71FF906461F223A40F8029B
:1059E000000DF905090FFDF716F9301A401C2B4977
:1059F00062182B494959CB031B0F0C24049F651CCB
:105A00000DD20D46E540ED0701D01E2500E01D2515
:105A100086B2B54204D2401B641E7F1CEFE70E27FE
:105A20001A49002B09D0FCB2A34206D2591CA1424C
:105A300001D0164900E01BA17F1E94B2FBB2C7B291
:105A4000099D9BE7C8E4FC07DA1EFD07E038FD0767
:105A500025642D253032642D25303264000000008D
:105A6000BAB4FC075EA4FC07ACC3FC07E15AFC0710
:105A7000D0CDFC07CCD2FC0752CBFC07D4C8FC0726
:105A8000B6D7FC074ED0FC0738D5FC07ECE3FC0783
:105A900033F8FFFF32F8FFFF40E0FC07CD070000BE
:105AA00090DAFC07416D206C6963683A202530323A
:105AB000642D253032642D2530346420284E290091
:105AC00022E5FC071CB5002400941218521E92B265
:105AD0005B185B1E9BB280B289B2FDF719F81CBD42
:105AE000B0B5092945DC04460720484321490D1873
:105AF000085C002805D0201D1E2111220423FFF779
:105B0000E1FF6878002806D02046153022210422C3
:105B10001323FFF7D7FFA878002806D020461530BA
:105B2000392104221323FFF7CDFFE878002805D0A0
:105B3000201D4C2111220423FFF7C4FF28790028DF
:105B400005D03921042213232046FFF7BBFF6879D3
:105B5000002805D02221042213232046FFF7B2FF9C
:105B6000A879002805D0201D352111220423FFF734
:105B7000A9FFB0BDF4A2FC0770B50C78A51E052DD9
:105B800027D81C0A7D442D796D00AF4402332225AD
:105B900044527A2060433C4A15188878782168542A
:105BA000C0070ED00C206043E0490E1831464D313D
:105BB00028467130062258F779FA4C20305C77215C
:105BC00068540C206043D9490818532100224254DC
:105BD00041E003F0FBF93EE07A2565432A4C601969
:105BE0003A30891C172258F761FA605D042101439D
:105BF000615530E07A20604323490818782100225B
:105C000042540C206043EE49081853214254204668
:105C1000FDF706FB1FE07A2565431B4E70196130C6
:105C2000891C1024224658F741FA705D20437055B4
:105C300011E07A206043144A15188B1C488A00280A
:105C40000BD028461E301C22194658F72FFA287808
:105C5000022101432970002070BDA81C1C22194696
:105C600058F724FA287801210143297007A0FDF78D
:105C7000BDFE112008A4461EEDD0295C2046FDF78C
:105C8000B5FE3046F7E7C046601EFD07200D0A202E
:105C90004C544B3A20307800253032780000000018
:105CA000FEB50878072833D81C0AC0467844007926
:105CB00040008744032D2D2D3487873F7A20604391
:105CC000414900250D540C206043404908185322D7
:105CD00001278754A0000C580E18002C13D10A205D
:105CE0000343F52083433F4804221E2419462346DC
:105CF00055F75EFF044607703060801C3A49072262
:105D000058F7D4F96770204655F76BFF356059E0B6
:105D1000A948C8210180A94808210180FEE74878E8
:105D200003284FD8784400794000874401443D411E
:105D300028A13EE07A266643234885194F782F77BD
:105D40002846143008210A46FDF772FBA81C009073
:105D5000102239461746FDF76BFB3CF70CFE1A4B39
:105D6000995D01220A439A556882204601F03AF86B
:105D7000297F0177698A4182E98AAA8A6B8B2D8BF8
:105D8000058343838282C182801C00993A4658F77A
:105D90008DF9204601F026F855F723FFA0000B49A6
:105DA0000818002141600DE00948019001A905E0B3
:105DB000891C102203E00648029002A90422204612
:105DC000FDF74AFA0020FEBD601EFD07E038FD0722
:105DD00040E20100000102030405060708090A0B5E
:105DE0000C0D0E0F140E000084E4FC0710B50C78A7
:105DF000092C0BD04C78002C06D0FB48C821018020
:105E0000FA4808210180FEE703F0E0F8002010BD09
:105E1000FEB51E4610460C4656F77FF802280CD1F8
:105E20000294340A0C20604340490D182F4648372D
:105E3000BC70FF2C08D14A355DE03A48C82101808A
:105E4000394808210180FEE701200190F870042004
:105E50000090032156F72FF8029908883880487A75
:105E60003871781D0A31062258F720F97A206043EC
:105E70002F4908187821475C0A200643F5208643FD
:105E80002C482C233146009A55F792FE282147547E
:105E9000019F014628314F7055F7A3FE4A20285C28
:105EA0004A35FF2827D02020234E34542220305C4E
:105EB000FDF71AFA02994888082809D3242807D838
:105EC00088880A2804D14B208000C988814205D0E7
:105ED000C8201A49FDF7EAF92121705418A0FDF7EE
:105EE00085FD2520375439203754184804210A22CB
:105EF00056F7B0F801E002F0BBFF2878FF280DD07C
:105F0000134D08350026002E02D0032E03D107E0E2
:105F10002968204688470C35761CF4E702F0A8FF74
:105F20000020FEBD0031005002330050E038FD0774
:105F3000601EFD07020E00006438FD077179FC0742
